:1000000003308A005F2B00007B11E434733A6137C0
:10001000E3346111BA126616223AE536F032F23054
:10002000F43AF230221D25332C11EC3A7A11BA122F
:10003000E63E8A0600008E30F7002E08F8002D08F4
:10004000F900FA01F808031D2F287908F800F901D2
:100050000830F702F808031D2F28F701372803108E
:10006000F81B3628F90DF80DF7032F28F8138A111D
:100070000A12BA2B2D080319FF28B90031080319F9
:10008000FF28B902031C49287F30B9070318FF284D
:100090004F288130B902031CFF280319FF283908B3
:1000A000F700F801F901FA01B8012E08B700B717F7
:1000B0002F08B6003008B5001930B9003408B50271
:1000C000031872280130B60203187228B702031809
:1000D0007228B80203187228B80AB70AB60A340898
:1000E000B507A4283308B60203188D280130B702DB
:1000F00003188D28B80203188D28B80AB70A3308E8
:10010000B6073408B507031CA428B60A031DA428A3
:10011000B70A031DA428B80AA42832088038B702F9
:100120000318A3280130B8020318A328B80A32081C
:100130008038B7073308B607031C8128B70A031DA8
:100140008128B80A81287A14B90BA728B22803108D
:10015000B50DB60DB70DB80D0310FA0DF90DF80D6C
:10016000BA0D5E283A1CBA280310F80CF90CFA0CE8
:10017000BA0CBD28F7030319FF28BA1BE6280310A1
:10018000B50DB60DB70DB80D3408B5020318D22859
:100190000130B6020318D228B7020318D228B802D9
:1001A000031CF5283308B6020318DD280130B70216
:1001B0000318DD28B802031CF52832088038B7027E
:1001C0000318E6280130B802031CF528FA0A031DBB
:1001D000F528F90A031DF528F80A031DF528F70A82
:1001E0000319FF28F80CF90CFA0C2E08B900320894
:1001F000B906B91FFD28F8170329F8130329F701D9
:10020000F801F901FA018A110A12D02B3A080319F0
:100210007629C2003E0803197629C2070318172958
:100220007F30C202031C7629031976291B298130ED
:10023000C207031876294208F700F801F901FA010C
:100240003B08C600C6173C08C5003D08C40018306E
:10025000C200C301441C44294108FA07031C362983
:10026000F90A031D3629F80A0319C3174008F907CC
:10027000031C3D29F80A0319C3173F08BC00BC172B
:100280003C08F8070318C317C30DF80CF90CFA0C57
:10029000C60CC50CC40C0310C20B29290130F7078A
:1002A00003187629F81B5B29C60DFA0DF90DF80D18
:1002B000F70303197629C61F6C29FA0A031D6C2956
:1002C000F90A031D6C29F80A031D6C29F80CF90CB6
:1002D000FA0CF70A031976293B08C3003F08C30646
:1002E000C31F7429F8177A29F8137A29F701F8013E
:1002F000F901FA0108002E08B5003208B506B51F4D
:10030000862903110310AE1B0314B9292E08B5006A
:100310003108B6002D08B60203199429B51FB92972
:100320000308013A8300B9293208B6002E08B60244
:100330000319A029B51FB9290308013A8300B92977
:100340003308B6002F08B6020319AC29B51FB92926
:100350000308013A8300B9293408B6003008B60210
:100360000319B829B51FB9290308013A8300B9292F
:1003700003108A110A12182C0B08AE008B13831677
:1003800003178C170C140000000083120313AE1B1C
:100390008B170318F42903170C087F390313AE00D9
:1003A00003170D080313AF0003170F080313B00062
:1003B0002E080C1ED92999002F0803178D0003134E
:1003C000300803178F0003130B08B1008B1383163B
:1003D00003178C170C140000000083120313B11BC9
:1003E0008B17AD0BF429142A03170C0D0E0D7F3952
:1003F0000313AE0003170D080313AF0003170F0814
:100400000313B0002E080C1E032A99002F080317AF
:100410008D000313300803178F008D0A03198F0A0C
:1004200003100313AD0BBC29080083181A2A4230AD
:1004300084008313F701F801F901FA01C201C30135
:10044000C401C501410840043F043E040319582A71
:100450002030C6000310BA0DBB0DBC0DBD0DC20D82
:10046000C30DC40DC50D41084502031D412A4008B6
:100470004402031D412A3F084302031D412A3E084E
:100480004202031C522A3E08C2023F08031C3F0FCF
:10049000C3024008031C400FC4024108031C410F63
:1004A000C5020314F70DF80DF90DFA0DC60B2A2A33
:1004B00042088000840A43088000840A44088000BF
:1004C000840A4508800008000408B2003108B4001E
:1004D0000319832A3008BD002F08BC002E08BB007A
:1004E0002D08BA00C101C0012030BF008230BE001B
:1004F00006217A08B0007908AF007808AE007708C6
:10050000AD00B40B6A2A3008BD002F08BC002E08CD
:10051000BB002D08BA003A08B63CBA00FA013B0805
:10052000BE00BB170310BB0CBC0CBD0CFA0CF90CC5
:10053000F80CF70CBA0B922ABE1FA92AF709F80982
:10054000F909FA09F70A0319F80A0319F90A03194C
:10055000FA0A7A08B0007908AF007808AE00770888
:10056000AD00B01FC02AB203B216AD09AE09AF0983
:10057000B009AD0A0319AE0A0319AF0A0319B00A8C
:100580003B30B9009A30B800CA30B700B6010A3023
:10059000B40031080319B20A83142D308400831388
:1005A0003008BD002F08BC002E08BB002D08BA0083
:1005B0003908C1003808C0003708BF003608BE003F
:1005C00015227808F708031DF82A310A34020319A6
:1005D000F82A32080319FA2A0F3934020319F22AC9
:1005E00003182E2BB21B2E2B321BFA2A2030292B5C
:1005F0002030B205B21E092BB2123108031DB2031E
:100600007708B2002D300C1E032B99003208F7003A
:10061000B20131083402031D182B7708B2002E30C6
:100620000C1E102B99003208F7002030B205003064
:100630003030B21E292BB2123108031DB2037708E5
:10064000B2002D300C1E222B99003208F700B201A7
:100650003030F70777080C1E2B2B990083103908D0
:10066000BD003808BC003708BB003608BA00C1011D
:10067000C001BF010A30BE0015227A08B90079080E
:10068000B8007808B7007708B600B40BCC2A080089
:100690002E3084008313000803195C2B0130F8000E
:1006A000F701F70B512BF80B502B4A30F700F70BE3
:1006B000572B5A2B800B4E2B8A110A12762C0308CB
:1006C0001F398300193083169900A63098009030A6
:1006D00083129800FF30AC0083161F149F141F155F
:1006E0009F1107309C0083138312A001A101853064
:1006F0009000F930AA000130AB002B02F800780D11
:10070000F700F70DF70DF830F70577080638920077
:100710002A088316920083122C112C088316870056
:10072000831207110C3097008316861083128614EB
:100730000330F700F70B9A2B83168610831286106E
:10074000831606148312061CA02B8E018F018E01C6
:100750008316061483120618A82B0F08FA000E0839
:10076000F7000F087A02031DAD2B7708AD007A0859
:10077000AE001B287A08A9007908A8007808A7000D
:100780007708A6002908B0002808AF002708AE00A7
:100790002608AD00B401B301B2018030B1003A289F
:1007A0007A08B0007908AF007808AE007708AD008D
:1007B0007A08BD007908BC007808BB007708BA0049
:1007C0002830C1007E30C0000C30BF007A30BE003F
:1007D00006217A08B0007908AF007808AE007708E3
:1007E000AD007A08BD007908BC007808BB00770826
:1007F000BA000230C1009A30C000BF017F30BE0095
:1008000006217A08A5007908A4007808A3007708D3
:10081000A200B001AF014830AE008530AD00250820
:10082000B4002408B3002308B2002208B1007B29D9
:1008300003181C2C031D232CFF3095001708CF39FB
:1008400030389700242C9501043003178D000030B8
:100850008F0003100D300313AD00BC2189308400DC
:100860002508B0002408AF002308AE002208AD0020
:100870000230B10064220B3003178D0000308F006E
:1008800003140F300313AD00BC2189308400B00184
:10089000AF017030AE008230AD000230B100642292
:1008A000143003178D0000308F000310073003133E
:1008B000AD00BC2189308400B001AF017030AE00C2
:1008C0008330AD000230B10064227D300C1E662CF6
:1008D00099000A300C1E6A2C99000D300C1E6E2CEB
:1008E00099000230AD00FA30AE00482BAD0B732CEE
:0408F000942B6300E2
:02400E00713F00
:00000001FF
;PIC16F877A
;CRC=0018  CREATED="03-dic.-21 11:57"
